:020000020000FC
:1000000008E00EBF0FE50DBF0E94690100C00E940D
:100010007D0150E058BB5AE75BBB0E9443015EED97
:100020005BBB5AE758BB0E9443015CE15BBB5EEDE2
:1000300058BB0E94430150E65BBB5CE158BB0E9489
:10004000430150E05BBB50E658BB0E9443010C9457
:10005000070040E042BF4FE04CBF4DE043BF552793
:1000600066270E947D016DE300E005BB48B741FFB4
:10007000FBCF42E048BF6A95B9F777278827452F1D
:1000800070E04A5012F07395FCCFAAE04A0F842F1B
:100090000E9451000E94710053955C3311F755275F
:1000A000E0CF4CEF7030D9F040E67130C1F04AED4E
:1000B0007230A9F042EF733091F046E6743079F077
:1000C00046EB753061F04EEB763049F040EE77301C
:1000D00031F04EEF783019F046EF793001F048BB3F
:1000E00008954DEF8030D9F040E68130C1F04BEDFE
:1000F0008230A9F042EF833091F047E6843079F006
:1001000046EB853061F04FEB863049F040EE8730AA
:1001100031F04FEF883019F046EF893001F04BBBDA
:100120000895002705BB2FEF01E005BB80998BC028
:1001300081998DC082998FC02A95B1F72FEF02E087
:1001400005BB809974C0819976C0829978C08399E3
:100150000C94DF002A9599F72FEF04E005BB8099F6
:100160005AC081995CC082995EC083990C94F30057
:100170002A9599F72FEF08E005BB819948C083992C
:100180000C94C90080990C94DB002A95A1F70C947B
:1001900091005AEF58BB50E05BBB0E9443010E94A4
:1001A00043010E9443010E9443010E9443010E94B7
:1001B00043010C9407000E9469010C9491005CE9D2
:1001C00058BB50E05BBB0E9443010E9443010E9468
:1001D00043010E9443010E9443010E9443010E9487
:1001E00069010C9491005EE358BB50E05BBB0E9438
:1001F00043010E9443010E9443010E9443010E9467
:1002000043010E9443010E9469010C94290040E0CF
:1002100041935CEF24C041E0419350E620C042E0AE
:1002200041935AED1CC043E0419352EF18C044E0A3
:10023000419356E614C045E0419356EB10C046E0AA
:1002400041935EEB0CC047E0419350EE08C048E09C
:1002500041935EEF04C049E0419356EF00C0E6369B
:1002600011F0E73649F058BB0E9443010E94430158
:100270000E9443010C9491005BBB0E9443010E94C9
:1002800043010C944B013FEF000000003A95E1F769
:100290002A95C9F70895129120918100121739F417
:1002A000129120918000121711F40C946001AD9A04
:1002B0000E9443010E9443010E9469010C94910035
:1002C000AC9A0E9443010E9443010E9469010C9470
:1002D00091000FEF04BB0ABB07BB00E001BB05BBED
:1002E0000BBB08BB95E6E92FFF2708E000938000D1
:1002F00002E00093810055270895002705BB2FEFEA
:1003000002E005BB83990C94DF002A95C9F72FEF13
:1003100004E005BB83990C94F3002A95C9F72FEFED
:1003200008E005BB83990C94C9002A95C9F7089584
:00000001FF
